:100000003DC000004BC0000049C0000047C00000D8
:1000100045C0000043C0000041C000003FC00000D8
:100020003DC000003BC0000039C0000037C00000E8
:1000300035C0000033C0000031C000002FC00000F8
:100040002DC000002BC0000029C0000027C0000008
:1000500025C0000023C0000021C000001FC0000018
:100060001DC000001BC00000A3008F009100930082
:100070009500970099009B009D009F0011241FBED2
:10008000CFEFD8E0DEBFCDBF21E0A0E0B1E001C0FE
:100090001D92A530B207E1F7C1D008C1B1CFE1E8A8
:1000A000F0E080818260808388EE93E09093890005
:1000B0008093880010928500109284000895B19B6F
:1000C000FECF08951092850010928400B19A089591
:1000D000109204011092020110920301109201018A
:1000E000109200010895509853988BB189608BB994
:1000F00087B18E6187B9089589B18095817008951F
:1001000089B183FB882780F991E08927089590E0E1
:100110008A309105B0F4FC01EC5CFF4FC1C086E071
:1001200008958BE508958FE4089586E608958DE699
:1001300008958DE7089587E008958FE7089587E68D
:10014000089580E008958FE30895809101018A3039
:1001500028F18A50809301018091030191E0980F6A
:100160009A3018F490930301089589508093030105
:100170008091020191E0980F963018F4909302015B
:100180000895855080930201809104018F5F8A3029
:1001900018F480930401089510920401089584B125
:1001A0008C6284B980E58CBD81E08DBD08958EBDE3
:1001B0000DB407FEFDCF2A9A2A980895449A88B173
:1001C000817F88B980910101A2DFF1DF78DF7ADFDA
:1001D000809103019CDF8058EADF439A88B1897ED1
:1001E00088B96DDF6FDF8091020191DFE0DF429A15
:1001F00088B1857E88B963DF65DF8091040187DF80
:10020000D6DF419A88B1837E88B959DF5BCF0895E4
:1002100001C0D4DF71DF8111FCCF089540DF63DFBF
:10022000BEDF56DF69DF882309F432C0F1DF2DC05D
:1002300063DF882311F0ECDF2BC0C0DF40DF42DF3B
:100240005BDF882311F0E4DF23C0809100018F5F22
:100250008093000151DF882311F0DADF19C080910B
:100260000001853068F010920001809101018F5FDC
:10027000809301016ADF40DF882311F0C9DF08C0E5
:100280003BDF882311F0C4DF03C036DF882381F20F
:1002900095DF36DF882309F4C5CF1ADF8FDFC2CFA1
:1002A000EE0FFF1F0590F491E02D0994F894FFCF15
:00000001FF
